:100000000C9465040C94AC040C94AC040C94AC04F7
:100010000C94AC040C94AC040C94AC040C94AC04A0
:100020000C94AC040C94AC040C94BE280C94902951
:100030000C940F220C94AC040C94AC040C94AC04FF
:100040000C94AC040C94AC040C94AC040C94AC0470
:100050000C94AC040C94AF220C94AC040C94AC043F
:100060000C94AC040C94AC040C94AC040C94AC0450
:100070000C94AC040C94AC040C94AC040C94AC0440
:100080000C94AC040C94AC040C94AC040C94AC0430
:100090000C94AC040C94AC040C94AC040C94AC0420
:1000A0000C94AC040C94AC040C94AC041418141808
:1000B000461846189318C719C719C719B118461911
:1000C00057195719B719C719C719C019491A491A21
:1000D0005B1A5B1A521A5B1A5B1A5B1A491A491AA5
:1000E000571A5B1A5B1A571AFD29242A1C2B242A3B
:1000F0001C2B702A932A1C2BEA2AF92A80818283DE
:100100008485868788898A8B8C8D8E8F9091929337
:1001100094A0A1A2A3A4A5A6A7A8A9AAABACADAE82
:10012000AFB0B1B2B3B4C0C1C2C3C4C5C6C7C8C9F9
:10013000CACBCCCDCECFD0D1D2D3D4005F0060001B
:10014000610056005C005D005E00570059005A00D7
:100150005B0053006200630058000151C25CC35C45
:10016000D25CD35CC35CC45CC55CC65CC75CC85C69
:10017000C95CCA5CCB5CCC5CC25C010000010101C3
:100180000101010101010202020202020202020354
:100190000303030303030304040404040404050524
:1001A00005050506060606060707070707080808E7
:1001B00008090909090A0A0A0B0B0B0C0C0C0D0D96
:1001C0000D0E0E0E0F0F0F1010111111121213132E
:1001D0001414151516161717181819191A1A1B1BA7
:1001E0001C1D1D1E1E1F2020212222232424252603
:1001F00026272829292A2B2C2D2D2E2F303132323B
:10020000333435363738393A3B3C3D3E3F40414246
:10021000434445464748494A4C4D4E4F505153542C
:10022000555658595A5B5D5E5F61626465666869E0
:100230006B6C6D6F7072737577787A7B7D7E808260
:10024000838587888A8C8E8F91939596989A9C9EA9
:10025000A0A2A3A5A7A9ABADAFB1B3B5B7BABCBEB9
:10026000C0C2C4C6C9CBCDCFD1D4D6D8DBDDDFE286
:10027000E4E7E9EBEEF0F3F5F8FAFDFF00AE00AFCE
:1002800000DA02818FD9F1DB40A4A62EAF00A0C016
:1002900000A1C800AED580A81FD300408D14200057
:1002A0000000000000003E5B4F5B3E003E6B4F6B6A
:1002B0003E001C3E7C3E1C00183C7E3C18001C5737
:1002C0007D571C001C5E7F5E1C0000183C1800005F
:1002D000FFE7C3E7FF00001824180000FFE7DBE793
:1002E000FF0030483A060E00262979292600407F73
:1002F00005050700407F05253F005A3CE73C5A00B2
:100300007F3E1C1C0800081C1C3E7F0014227F221C
:1003100014005F5F005F5F0006097F017F000066D9
:1003200089956A0060606060600094A2FFA29400FA
:1003300008047E04080010207E20100008082A1CF3
:100340000800081C2A0808001E10101010000C1EBF
:100350000C1E0C0030383E383000060E3E0E0600F3
:1003600000000000000000005F0000000007000720
:100370000000147F147F1400242A7F2A1200231304
:100380000864620036495620500000080703000048
:10039000001C224100000041221C00002A1C7F1C7E
:1003A0002A0008083E080800008070300000080895
:1003B0000808080000006060000020100804020027
:1003C0003E5149453E0000427F4000007249494984
:1003D00046002141494D33001814127F1000274573
:1003E000454539003C4A494931004121110907007E
:1003F000364949493600464949291E000000140083
:1004000000000040340000000008142241001414D1
:1004100014141400004122140800020159090600B6
:100420003E415D594E007C1211127C007F494949C2
:1004300036003E41414122007F4141413E007F491B
:10044000494941007F09090901003E4141517300BA
:100450007F0808087F0000417F4100002040413FA5
:1004600001007F08142241007F40404040007F028D
:100470001C027F007F0408107F003E4141413E0086
:100480007F09090906003E4151215E007F091929B3
:10049000460026494949320003017F0103003F40DD
:1004A00040403F001F2040201F003F4038403F0099
:1004B0006314081463000304780403006159494D70
:1004C0004300007F41414100020408102000004128
:1004D00041417F00040201020400404040404000CE
:1004E0000003070800002054547840007F2844444B
:1004F0003800384444442800384444287F003854A5
:100500005454180000087E0902001824241C7800A6
:100510007F080404780000447D4000002040403DF6
:1005200000007F102844000000417F4000007C0450
:10053000780478007C080404780038444444380087
:100540007C1824241800182424187C007C08040437
:10055000080048545454240004043F4424003C4000
:1005600040207C001C2040201C003C4030403C00CF
:100570004428102844004C9090907C004464544CD3
:1005800044000008364100000000770000000041F0
:10059000360800000201020402003C2623263C002B
:1005A00000000000000000F8F858585EDA5A5B5965
:1005B000DB5A5B58D8585858D8585858D8585858B3
:1005C000D8585858D8585878F8F8F8787878F80003
:1005D000000000000000000000000000000000001B
:1005E000000000000000000000000000000000000B
:1005F00000000000000000000000000000000000FB
:1006000000000000000000000000000000000000EA
:100610000000004428FF5A240000000000000000F1
:1006200000000000000000000000000000000000CA
:1006300000000000000000000000000000000000BA
:1006400000000000000000000000000000000000AA
:10065000000000000000000000000000000000009A
:1006600000000000000000FFFF445544FF445544D3
:10067000FF445544FF445544FF445544FF4455440A
:10068000FF445544FF445544FFFFFFC4D5C4FF0059
:1006900000FE2161A11E00FE012121EF00FF1111CA
:1006A00011FE000000000000FF111111FE00FF000C
:1006B00000000000FF000000FF00FF111111010009
:1006C0000101FF010100FF0101FF00FF0101FF0027
:1006D0000101FF010100FF202020FF0000000000B9
:1006E000000000000000000000000000000000000A
:1006F00000000000000000000000000000000000FA
:1007000000000000000000000000000000000000E9
:1007100000000000000000000000000000000000D9
:10072000000000000000007F7F4455447F44555482
:100730005754555457545554575455545754457C51
:100740004754457C7F7C455457505E5057477F0047
:100750000003000000030001020202030003020282
:100760000201000000000000030202020100030277
:10077000020202000302020203000302020202005C
:100780000000030000000302020300030202030052
:1007900000302B7C2040037C447C030000000000E0
:1007A0000000000000000000000000000000000049
:1007B0000000000000000000000000000000000039
:1007C0000000000000000000000000000000000029
:1007D0000000000000000000000000000000000019
:1007E00004033000000010034200690067006F003E
:1007F00050006100640000000803420069006E00C0
:1008000000000403090409023B00020100A0FA09E8
:10081000040000010301010009211101000122402F
:10082000000705810308000A090401000103000014
:100830000009211101000122360007058203200072
:100840000A1201100100000008EDFE000001000185
:1008500002030105010980A10185031A81002A8391
:1008600000160100260300950175108100C0050CDB
:100870000901A10185041A01002A9C021601002623
:100880009C02950175108100C005010906A10105B2
:100890000719E029E71500250195087501810295E2
:1008A00001750881010507190029FF150026FF00C1
:1008B000950675088100050819012905950575013A
:1008C0009102950175039101C00011241FBECFEF65
:1008D000DAE0DEBFCDBF04B603FE27C08091F2048C
:1008E0009091F304A091F404B091F5048730904BFB
:1008F000A740B04BD1F41092F2041092F30410927E
:10090000F4041092F50414BE84B7877F84BF0FB639
:10091000F894A8958091600088618093600010929F
:1009200060000FBEE0E0F8E3099511E0A0E0B1E05F
:10093000E2EDF7E502C005900D92A039B107D9F7B5
:1009400024E0A0E9B1E001C01D92A23FB207E1F7A7
:100950000E94E8250C94E72B0C94000060E08CEFDB
:1009600090E00C94EE11811106C0662311F089EA23
:1009700009C08AEA07C0813039F4662311F08DEB93
:1009800001C08EEB0C94C117089581E0089560E0DA
:100990008CEF90E00C94EE110895089581E0089595
:1009A0000C94C5041F93CF93DF9300D000D01F9207
:1009B000CDB7DEB749835A836B83209108028981C2
:1009C0009A81211112C0662349F00E94971F182FA7
:1009D000682F89819A810E94421F03C00E946C1F68
:1009E000182F69817A81812F04C00E94971F698125
:1009F0007A810F900F900F900F900F90DF91CF9111
:100A00001F910C94A707FC01408151816281738181
:100A100084810C94D2040E94C920811102C00E94DA
:100A200073210E94950E0E94A50F0C94540A0E94F7
:100A3000860D0E9409100C94560A0C94CD040C9457
:100A40001D0508950E94371A0E9421052FEF84E3A7
:100A50009CE0215080409040E1F700C0000087E713
:100A600097E790930108809300080C94D5220F9388
:100A70001F93CF93DF938C010E940305EC01B80113
:100A80000E94E80C882309F458C2B801CE010E94E4
:100A9000D004882309F451C2B801CE010E94D613B4
:100AA000882309F44AC2C83CFCE5DF0741F4F80199
:100AB0008281882309F441C20E94110F3EC2C93CC1
:100AC0008CE5D80708F0C4C1C23CECE5DE0741F470
:100AD000F8018281882309F430C20E94C30E2DC21E
:100AE000C33CFCE5DF0708F06BC1C6318CE5D807D5
:100AF00008F03CC1C230ECE5DE0708F413C1F80190
:100B00008281882309F415C10E94C920811102C085
:100B10000E9473210E94E6209093E4048093E304F2
:100B2000C031FCE5DF0709F4BFC008F03FC0C830A2
:100B3000ECE5DE0709F496C0F0F4C4308CE5D80784
:100B400009F483C068F4C230FCE5DF0709F473C020
:100B5000C330DC4509F0DDC08091E304826072C0DF
:100B6000C630ECE5DE0709F46AC008F077C0809172
:100B7000E304886067C0CC308CE5D80709F481C0F5
:100B800058F4CA30FCE5DF0709F470C008F075C0FE
:100B90008091E304806856C0CE30ECE5DE0709F4AE
:100BA00074C008F07DC08091E30489C0CB3F8CE520
:100BB000D80709F44DC008F5C331FCE5DF0709F497
:100BC0007BC068F4C131ECE5DE0709F471C0C231C5
:100BD000DC4509F09EC08091E3048F7733C0C531B6
:100BE0008CE5D80709F472C008F486C0CA3FDC451A
:100BF00009F08FC08091E4043EC0CF3F8CE5D80758
:100C000009F45FC058F4CD3FFCE5DF0709F444C0A8
:100C100008F43FC08091E40482602DC0C130EDE54E
:100C2000DE0709F473C008F45DC0C230DD4509F089
:100C300070C080E06CC08091E304816003C080914B
:100C4000E30480618093E30464C08091E30411C0F5
:100C50008091E40482608093E4045BC08091E304AB
:100C60008062F0CF8091E3048064ECCF8091E30454
:100C700088608460E7CF8160EECF8091E3048E7F4F
:100C8000E1CF8091E3048D7FDDCF8091E304877F06
:100C9000D9CF8091E40418C08091E4048D7FDBCF2C
:100CA0008091E3048F7ECECF8091E3048F7DCACF05
:100CB0008091E3048F7BC6CF8091E304877F8B7F95
:100CC000C1CF8091E4048D7F8E7FC5CF8091E304F6
:100CD00082FB222720F991E0922790FB82F990FB7A
:100CE00083F9B0CF8091E404982F909591708E7F16
:100CF000892B90FB81F9AFCF8091E30487FB2227FA
:100D000020F991E0922790FB87F99CCF81E00E9427
:100D100075218091E3049091E4040E94F7200E94E1
:100D2000371A0BC1C115FCE5DF0751F0C130DC45B6
:100D300079F0C801DF91CF911F910F910C94CE04EF
:100D4000F8018281882309F4F8C00E942205F5C0C9
:100D5000F8018281882309F4F0C080916002982F05
:100D6000909590FB80F980936002E7C0C631DC4526
:100D700001F70E941820982FF801828120915301D9
:100D800030915401882379F09A7A81E009F480E067
:100D900080939001911102C069E201C065E3C9012D
:100DA0000E94AD210AC080919001811102C069E2C8
:100DB00001C065E3C9010E94AF210E946620BDC049
:100DC000C53CFCE5DF0741F4F8018281882309F482
:100DD000B4C00E94F90EB1C0C63C8CE5D80700F53E
:100DE000C33CECE5DE0761F4F8018281882309F455
:100DF000A4C00E941820827281F00E94E30E9DC060
:100E0000C43CDC4509F095CFF8018281882309F4C0
:100E100094C00E941820827281F30E94CD0E8DC072
:100E2000C63C8CE5D80741F4F8018281882309F497
:100E300084C00E94000F81C0C73CDC4509F079CF17
:100E4000F8018281882309F478C00E94070F75C0D9
:100E5000C63DFCE5DF0708F044C0CE3C8CE5D80772
:100E600008F06BC0CB3CECE5DE0741F4F801828171
:100E7000882309F462C00E942F0F5FC0CC3CFCE5C0
:100E8000DF07C0F4C93C8CE5D80741F4F801828142
:100E9000882309F452C00E941B0F4FC0CA3CDC4596
:100EA00009F047CFF8018281882309F446C00E94E7
:100EB000250F43C0CC3CFCE5DF0739F4F801828103
:100EC0008823D9F10E94390F38C0CD3CDC4509F0A8
:100ED00030CFF8018281882381F181E00E94430FA5
:100EE0002CC0CE3DECE5DE0739F4F8018281882381
:100EF00021F10E94732121C0CF3DFCE5DF07B0F452
:100F0000CC3D8CE5D80731F4F80182818823A9F023
:100F100080E009C0CD3DDC4509F00BCFF8018281AE
:100F2000882359F082E00E94852607C0CE018A5F9F
:100F30009C45099708F4E3CDFCCE80E0DF91CF918A
:100F40001F910F91089580E090E008950895E72F94
:100F5000F0E094E0899FE00DF11D1124EE0FFF1FDA
:100F6000EE0FFF1FE60FF11DEE0FFF1FE45CFE4FBB
:100F7000859194910895880F991FFC01E458FE4FC4
:100F8000859194910895CF93DF930E94A7070E94C3
:100F90007D09EC018115904508F041C0C11580E440
:100FA000D80708F028C1C83ED10510F5C03ED105CC
:100FB00008F09FC1C83AD10578F4C53AD10508F0C8
:100FC000A2C0C130D10509F494C108F445C1C430B0
:100FD000D10508F08EC140C1CF3BD10508F49EC0B9
:100FE000C03CD10508F438C1CE01805C9109F5C040
:100FF000C11590E2D90758F4C11521E0D20708F0D5
:1010000078C1C03FD10508F427C1D06572C1C115B0
:1010100080E3D80708F0E5C0CE019F70DEC0C1159F
:1010200095E5D90708F043C0C11524E5D20708F0BB
:10103000F9C0C11582E5D80708F5C11591E5D907B2
:1010400008F0DCC0CE0174E0969587957A95E1F7BB
:1010500083709C2F937021E030E002C0220F331F79
:101060009A95E2F73C68382BCF70C695C69580E21A
:10107000C89FE0011124C22BD32B3BC19E012370DA
:1010800033278C2F86958695C115D34508F0BBC0B4
:10109000C1E0D0E002C0CC0FDD1F2A95E2F720E2CC
:1010A000829FC0011124C82BD92BDC6822C1C11535
:1010B00029E5D207A0F4C11588E5D80708F0B7C024
:1010C000C11596E5D90708F0C7C08C2F0E94110AF8
:1010D0008F71C82FD0E0DC2FCC27D0620AC1C11598
:1010E0002AE5D20708F4A8C0CE0190568115904297
:1010F00008F0B2C08D2F8F710E94110ADD27D062D7
:101100008F71D82BF6C0C53AD10509F4A8C0C63AEC
:10111000D10509F0A7C0C2E8D0E4EBC0C83AD105B8
:1011200009F4A3C0C93AD10509F4A2C0CA3AD1054D
:1011300009F4A1C0CB3AD10509F4A0C0CC3AD1053D
:1011400009F49FC0CB3BD10509F49EC0CC3BD1052F
:1011500009F49DC0CD3AD10509F49CC0C03BD1052E
:1011600009F49BC0CE3AD10509F49AC0CF3AD10513
:1011700009F499C0C13BD10509F498C0C23BD1051F
:1011800009F497C0C33BD10509F496C0C43BD1050F
:1011900009F495C0C53BD10509F494C0C63BD105FF
:1011A00009F493C0C73BD10509F492C0C83BD105EF
:1011B00009F491C0C93BD10509F490C0CD3BD105DC
:1011C00009F48FC0CE3BD10509F48EC0CA3BD105CE
:1011D00009F48DC0C0E0D4E48CC00E94BB07EC01D0
:1011E00088C0CE019927D3FF03C0EC01D86C81C021
:1011F000EC01D06C7EC0DF70D06A7BC0DC2FCC27C6
:10120000C16FD06A76C0C1E0D0E002C0CC0FDD1F54
:101210002A95E2F720E2829FC0011124C82BD92B26
:10122000DA6867C0DC2FCC27C46FD06A62C0DC2FBD
:10123000CC27C06FD06A5DC08C2F8F700E94110ABE
:1012400094E0D695C7959A95E1F7CF70D0E0DC2F62
:10125000CC27D069C82B4DC0C0E0D0E04AC0C1E85F
:10126000D0E447C0C3E8D0E444C0C2EED4E441C0F7
:10127000C9EED4E43EC0CAEED4E43BC0C5EBD4E42E
:1012800038C0C6EBD4E435C0C3EBD4E432C0C4EB01
:10129000D4E42FC0C7EBD4E42CC0CCECD4E429C0F8
:1012A000CDECD4E426C0C3E8D5E423C0CAE8D5E435
:1012B00020C0C2E9D5E41DC0C4E9D5E41AC0C1E22A
:1012C000D6E417C0C3E2D6E414C0C4E2D6E411C029
:1012D000C5E2D6E40EC0C6E2D6E40BC0C7E2D6E44F
:1012E00008C0CFE6D4E405C0C0E7D4E402C0CAE237
:1012F000D6E4CE01DF91CF9108958238910569F14E
:10130000B0F48133910509F46DC048F48932910538
:1013100009F463C08A32910509F469C008958533E0
:10132000910509F455C089339105B9F00895833EBC
:10133000910569F138F4803E9105B1F0823E910546
:1013400009F10895863E9105A9F1873E9105B9F10D
:10135000843E910509F064C023C02091E30420FD80
:101360004FC021FD4DC008958091E30480FD44C02D
:101370008091E40480FF44C08091E30484FD42C076
:1013800083EE4DC08091E30482FF38C0F5CF809199
:10139000E30482FD33C08091E40480FD31C0ECCFD2
:1013A0008091E40481FF32C08091E30484FD2AC06F
:1013B00087EE35C08091E30483FF26C0F5CF80918E
:1013C000E30483FD21C08091E40481FD1FC0ECCFC4
:1013D0008091E30485FD1CC01DC08091E30485FD60
:1013E00019C016C08091E30486FD16C017C0809115
:1013F000E30486FD13C010C089E311C082EE0FC064
:1014000080EE0DC080E00BC086EE09C084EE07C000
:1014100089E205C085E303C08AE201C081E390E070
:1014200008959091E30492FF0DC0282F2871283071
:1014300019F4877F846006C0282F2471243011F4AA
:101440008B7F886093FF0DC0282F2871283119F4F5
:10145000877E846106C0282F2471243111F48B7E8D
:1014600088612091E40420FF0DC0382F3871383096
:1014700019F4877F816006C0382F3171313011F443
:101480008E7F886021FF0DC0282F2871283119F424
:10149000877E816106C0282F2171213111F48E7E53
:1014A000886194FD877E08950C94C7040C94CC0445
:1014B000E82FF0E0EF56FE4F808108950895CF9316
:1014C000DF93A3E6B1E047E651E061E070E08D9183
:1014D000E82FE295EF70F0E021A18F70EB0102C0E0
:1014E000CC0FDD1F8A95E2F7CE019C2F90959223B9
:1014F00091A392A1892B82A34A175B0741F7A7E624
:10150000B1E041E050E08D91E82FE295EF70F0E01E
:1015100021A18F70BA0102C0660F771F8A95E2F78A
:10152000CB01962F9095922391A392A1892B82A310
:1015300071E0AB36B70739F710929501109291011F
:1015400010929601109292011092970110929301BD
:10155000109298011092940184E00E94490BDF914F
:10156000CF910C940B053F924F925F926F927F92B6
:101570008F929F92AF92BF92CF92DF92EF92FF92A3
:101580000F931F93CF93DF9363E671E040E050E049
:10159000412C01E010E029E9A22E21E0B22EDB016E
:1015A0008D91BD01E82FE295EF70F0E021A18F70E1
:1015B000E80102C0CC0FDD1F8A95E2F7CE012C2B8B
:1015C00021A322A13C2E3094232122A3D0EADA9534
:1015D000F1F79801042E01C0220F0A94EAF7622E57
:1015E000922E909497E6E92E91E0F92EA5E9B1E0CC
:1015F000812C6D017C90E70159907E01252D22956B
:101600002F7030E0E90128A130E0D52DDF7002C055
:1016100035952795DA95E2F720FD03C0272D262979
:1016200002C0272D29212C931196E60128817216DC
:1016300011F088248394AA16BB06D9F691A1D32D64
:10164000D923D1A392A1892B82A348284F5F5F4F52
:101650004430510509F0A3CF242D44E061E971E045
:1016600085E991E00E944A0B0E941705842DDF91C5
:10167000CF911F910F91FF90EF90DF90CF90BF908F
:10168000AF909F908F907F906F905F904F903F9022
:1016900008950895FF920F931F93CF93DF938C01CA
:1016A000F62ED72FC42F222349F081E080939B018F
:1016B0000E94412290939A018093990180919B010D
:1016C0008823C1F08091990190919A010E9459223A
:1016D000069780F0EF2DFD2FD8014C2F50E0CD0163
:1016E000801B910B841795071CF48D918193F7CF84
:1016F00010929B01DF91CF911F910F91FF90089560
:10170000EF92FF920F931F93CF93DF93F62E472F05
:10171000E82FF0E0711106C0E458FE4F6491762F77
:10172000862F72C0272F30E0E458FE4FE4910E2F31
:1017300010E056E0659FC0011124CFEFD0E0BE015C
:101740000E945C2B5BEA5603C001579F900D112449
:101750008F0D911D8F0D911D982F990F890F7E016F
:10176000E21AF30AE09ED001E19EB00DF09EB00DAA
:101770001124489FA0011124452F55277E01E41A0A
:10178000F50AE09EA001E19E500DF09E500D11243F
:101790007E01E81AF108E29EC001E39E900DF29EE0
:1017A000900D1124892F9927C81BD90BC09FC00108
:1017B000C19F900DD09F900D11246230710591F062
:1017C00048F461157105E1F061307105A9F48B2FC2
:1017D000752F19C06430710561F038F066307105FD
:1017E00079F00AC0892F7B2F0EC08E2F7B2FE52F1B
:1017F0000AC08E2F792F02C0852F7E2FEB2F03C0BA
:101800008B2F7E2FE92F6E2FDF91CF911F910F919C
:10181000FF90EF90089545E050E06CE170E08DE6B8
:1018200092E00C94952B45E050E06CE170E08DE681
:1018300092E00C94B32BEDE6F2E085E0808380919A
:10184000600190916101A091620181839283A383E1
:101850008FE784830C94130C80E008950F931F93FB
:10186000CF93DF93C82FD62F8A010E942C0C94E0CF
:10187000C99FF0011124E050FF4FED0FF11D908141
:101880009F3F29F0F801E80FF11D90838F5FDF91F2
:10189000CF911F910F910895E0917101F091720124
:1018A0000994E0916D01F0916E010994DF92EF923D
:1018B000FF920F931F93CF93DF938C01DC01CC91A8
:1018C000CC0FCC0FD4E0DC0FD33108F0D2E1609123
:1018D0006E0270916F02809170020E94800BF62E52
:1018E000E72ED82ECD17A0F4EC2FF0E0DF01A050AA
:1018F000BF4FD4968C91D80111969C91982331F0CA
:101900002D2D4F2D6E2DCF010E94510CCF5FEACFB0
:1019100081E0D23108F080E0DF91CF911F910F91EB
:10192000FF90EF90DF900895AF92BF92CF92DF9239
:10193000EF92FF920F931F93CF93DF938C01FC01E3
:10194000C081CC0FCC0FD4E0DC0FD33108F0D2E152
:10195000E0906F02F0907002D0906E026D2D7E2D9F
:101960008F2D0E94800BC62EB72EA82E609171027B
:101970006D0D7E2D8F2D0E94800BF62EE72ED82E1A
:10198000CD17B8F48C2F90E0FC01E050FF4F34A944
:10199000F8012181232359F030FF04C02D2D4F2D54
:1019A0006E2D03C02A2D4C2D6B2D0E94510CCF5F44
:1019B000E7CF81E0D23108F080E0DF91CF911F9135
:1019C0000F91FF90EF90DF90CF90BF90AF90089570
:1019D000CF92DF92EF92FF920F931F93CF93DF93FB
:1019E000CDB7DEB728970FB6F894DEBF0FBECDBFD8
:1019F000FB018281882389F0AE014F5F5F4F6081D8
:101A000081810E942E0CF82E10929F021092A0024B
:101A10001092A1021092A20201C0F12CE0909C0150
:101A20000F2D10E0C8018E0D911D099764F188E01B
:101A300090E06C01C01AD10AB80163567E4FA6012E
:101A40008DE991E00E948C2BB8016B557E4FA60169
:101A500085EA91E00E948C2BA601440F551FB80126
:101A6000660F771F6B547E4F85EB91E00E948C2BA5
:101A7000B80163557E4FA6018DEA91E00E948C2B40
:101A8000EA94E0929C0110919C01DE01119640E0E5
:101A9000842F810FF41609F190E05D91252F30E03D
:101AA000BC0164567E4FF901EE0FFF1FE05FFE4F51
:101AB0000081FB010183220F331FF901E050FF4F2A
:101AC0002189FB012187518B880F991FFC01E45666
:101AD000FE4F128E118E4F5FDBCF80939C0181E011
:101AE00028960FB6F894DEBF0FBECDBFDF91CF9121
:101AF0001F910F91FF90EF90DF90CF900895089580
:101B00000C947F0D0E94800D0C947F0DCF92DF927C
:101B1000EF92FF920F931F93CF93DF936091C501D4
:101B20007091C6018091C7019091C8010E948322E3
:101B30006B017C01EB010E944D22AB01BC01409383
:101B4000C5015093C6016093C7017093C80180918D
:101B50009F029091A002A091A102B091A2028F3F9A
:101B60002FEF9207A207B20729F1EE24FF24970175
:101B700086010095109520953095081719072A07BA
:101B80003B0760F48FEF9FEFDC0180939F029093FF
:101B9000A002A093A102B093A2020CC0C80ED91E4D
:101BA000EA1EFB1EC0929F02D092A002E092A10208
:101BB000F092A202A0919C01ECE9F1E02A2F30E022
:101BC0007E01E094F094A31771F0818D928DE81658
:101BD000F90610F4215004C08C0F9D1F928F818F45
:101BE0003F5F3296F0CF20939C0180916D02982F39
:101BF000937021F0C82FC695C69501C0C0E09091A2
:101C000046019130E9F038F0923009F468C0933021
:101C100009F470C080C01092470140939B0250931A
:101C20009C0260939D0270939E0289E2ECE9F1E0D0
:101C3000A2E7B2E001900D928A95E1F781E057C0EA
:101C400090914A01C9130CC0837090E040914B0100
:101C500050E021E08417950709F420E0822F01C0AD
:101C600081E0817080934901C13011F138F0C230B8
:101C700021F587E491E00E94940C20C08823E9F0CC
:101C8000D0914701DD0FDD0F14E01D0F133108F077
:101C900012E1D11748F420E040E060E08D2F90E0A1
:101CA0000E94510CDF5FF5CF81E0123138F005C0A2
:101CB00087E491E00E94560C01C080E090914701BA
:101CC0009F5F90934701811126C082E08093460177
:101CD0008091490181111FC0CC2341F01CC0C093E9
:101CE0004A01837080934B010E944C0C83E08093E7
:101CF000460111C060919B0270919C0280919D02EF
:101D000090919E020E9483226031710581059105A8
:101D100010F010924601DF91CF911F910F91FF902B
:101D2000EF90DF90CF900C94820DE0916B01F091D9
:101D30006C01099510927202EBE8F2E08FEF9FEFD1
:101D40008193919322E0EB39F207D1F710929C0135
:101D5000E5EBF1E08FEF9FEF8193919321E0E53C7C
:101D6000F207D1F70E94C920811104C00E9473219B
:101D70000E941B0C0E940B0C80916D028C7F11F451
:101D80000C941B0C0895EDE6F2E0908181E0892728
:101D90008083109246010C94130C90916D02892F50
:101DA000869586958F5F8F739370833020F4880FAC
:101DB000880F892B02C0892F846080936D02109256
:101DC00046010C94130C90916D02892F869586958F
:101DD000815C8F739370882321F0880F880F892B83
:101DE00002C0892F886080936D02109246010C9486
:101DF000130CEDE6F2E08181885F81830C94130C73
:101E0000EDE6F2E08181885081830C94130CEDE6BD
:101E1000F2E0228130E1230F08F42FEF22830C94AB
:101E2000130CEDE6F2E0228130E1231B08F420E000
:101E300022830C94130CEDE6F2E0238130E1230FB2
:101E400008F42FEF23830C94130CEDE6F2E02381CA
:101E500030E1231B08F420E023830C94130CEDE6FF
:101E6000F2E0248130E1230F08F42FEF24830C9457
:101E7000130CEDE6F2E0248130E1231B08F420E0AE
:101E800024830C94130CEDE6F2E0880F880F908108
:101E90009370892B8083109246010C94130C089543
:101EA00062E170E083EA92E00C94A00FFC01EE0F77
:101EB000FF1F8E0F9F1FFC01ED55FD4F6183408377
:101EC00022830895E3EAF2E092E0E93DF90729F080
:101ED0008183608342833396F7CF08952BB1342FEB
:101EE000309523233BB1432B3FB7F894FC01680F97
:101EF000791FE617F70789F0819198E04BB9000048
:101F000000C087FF2BB9880F000000C000C000C0D0
:101F10002BB900C09A9591F7ECCF3FBF08952AB135
:101F2000242B2AB99B01220F331F620F731F0E94BB
:101F30006E0F87EC90E00197F1F700C00000089564
:101F400042E00C948F0F0C94B304FF920F931F93F5
:101F5000CF93DF93CBECD1E045E851E023E831E0CB
:101F600061E070E0F1E0CD3CDF0709F44CC0FA011C
:101F70000191AF01A02FA295AF70B0E09196EC91C6
:101F800091970F70CB01002E01C0880F0A94EAF7D9
:101F9000982F90959E2391969C93919792969C91C1
:101FA0009297892B92968C939297F90111919F01A8
:101FB000E12FE295EF70F0E0F1A01F70CB01012E50
:101FC00001C0880F0A94EAF7982F90959F2191A35A
:101FD00092A1892B82A390968C9190E002C0959556
:101FE00087950A95E2F78170E0A1F0E002C0F595CF
:101FF000E7951A95E2F7E0FD02C090E001C092E09B
:10200000892B8993AFCFDF91CF911F910F91FF90D3
:1020100008957F928F929F92AF92BF92CF92DF925C
:10202000EF92FF920F931F93CF93DF93C9ECD1E010
:102030000BEC11E085E8882E81E0982E93E8A92E1C
:1020400091E0B92E68017801712CD701ED917D01E5
:102050004E2F440F440FF80141938F01D4012D916D
:102060004D01E22FE295EF70F0E080A190E02F703B
:1020700002C0959587952A95E2F781709927F50119
:1020800051915F01E52FE295EF70F0E020A130E083
:102090005F7002C0359527955A95E2F7F901E17016
:1020A000FF2720FF02C0E2E0F0E0E82BF92BE42B51
:1020B000D601ED936D01EF70F0E0ED58FE4F908189
:1020C0008881890F8883843024F060E0872D0E9406
:1020D000A30F88818D3F24F461E0872D0E94A30F18
:1020E0008881837887FF03C081508C6F8F5F8993CD
:1020F0007394B2E07B12A9CFDF91CF911F910F9122
:10210000FF90EF90DF90CF90BF90AF909F908F9017
:102110007F900895EF92FF920F931F93CF93DF93D9
:10212000EC017B0164E670E088E70E941D148C01DD
:10213000EC0EFD1ECE15DF0561F017FD0AC0FE0195
:10214000849164E670E00E9474148C012196892BBE
:1021500089F30E94F814C801DF91CF911F910F916C
:10216000FF90EF9008950895E9EDF2E080E092E0AD
:10217000DF019C011D9221503040E1F7F093DE0415
:10218000E093DD048FEF9FEF9093F9018093F801C6
:1021900008950E94B3108093F40180FD02C080E88E
:1021A00001C080E28093F3010E9417146DE070E09B
:1021B00083E992E00E948A10892B11F080E0089553
:1021C0008091F40163E070E081FD03C080E992E05A
:1021D00002C08DE892E00E948A10892B79F76DE0A9
:1021E00070E080E892E00E948A10892B39F70E9403
:1021F0004D22DC01CB01805A9541AF4FBF4F8093F8
:10220000D9049093DA04A093DB04B093DC040E9419
:10221000B41081E08093F7018093F6011092F501EC
:1022200008952091F30136E0839FC0011124629F3D
:10223000800D911D1124811522E0920714F080E099
:1022400090E087529D4F9093DE048093DD040895C3
:102250002091DD043091DE04235D32404091F30192
:10226000642F70E0C9010E945C2B481B463010F4BB
:10227000240F311D211582E0380710F020E030E0F6
:1022800027523D4F3093DE042093DD040895CF9311
:10229000DF938A3011F481E003C08D3029F480E0AF
:1022A000DF91CF910C94BD11C62F682F8091DD0472
:1022B0009091DE0426E0FC01ADECB1E001900D92BE
:1022C0002A95E1F7613E30F026E0FC0111922A9553
:1022D000E9F70AC0F6E06F9FB001112460567D4F08
:1022E00046E050E00E94762BC11135C0C091DD045C
:1022F000D091DE0446E050E0BE018DEC91E00E94FA
:102300007F2B892BB1F1C95DD2409E0185E03695C6
:1023100027958A95E1F781E090E0AC0102C0440F77
:10232000551F2A95E2F72091F8013091F901242BED
:10233000352B269645E0D695C7954A95E1F702C01C
:10234000880F991FCA95E2F7822B932B9093F9017E
:102350008093F8010EC0E091DD04F091DE049F014E
:102360002A5F3F4F2E173F0709F2808180958193A6
:10237000F9CFDF91CF910C942811CF93E82F2091C2
:10238000DD043091DE04295D32404091F301642F79
:1023900070E0C9010E945C2B481B842FEE2359F08A
:1023A00066E00E94502BC82FC150B0F060E080E280
:1023B0000E944711F9CFA901480F511D4115524004
:1023C00018F080E020E030E0280F311D27523D4F0B
:1023D0003093DE042093DD04CF9108951F93CF93B3
:1023E000DF93EC01162FFE018491882329F0612FE1
:1023F0000E9447112196F7CFDF91CF911F91089549
:102400000E944D22DC01CB01805A9541AF4FBF4F56
:102410008093D9049093DA04A093DB04B093DC0496
:102420008091F60181110BC062E070E08EE792E0CE
:102430000E948A10892B19F481E08093F601809123
:10244000F60108956F927F928F929F92AF92BF9202
:10245000CF92DF92EF92FF920F931F93CF93DF9370
:102460002091F8013091F9012115310509F4D4C00A
:102470008091F5018111D0C061E070E0082F10E07B
:102480003B01082E02C0660C771C0A94E2F7A301F8
:1024900042235323452B11F48F5FF0CF9091F40129
:1024A000980165E0220F331F6A95E1F790FD12C095
:1024B0008295880F807680934E01220F232F221F52
:1024C000330B319520935101815E80934F0110921F
:1024D000520112C045E0369527954A95E1F7220F43
:1024E000220F220F20934E0110925101295F209359
:1024F0004F0183E08093520124E630E047E050E052
:102500006CE471E088E70E94A414892B09F084C070
:102510008091F40180FD23C0A80195E0440F551F70
:102520009A95E1F747525D4F04E610E020E230E073
:1025300060E488E70E94CB14892B09F06DC00E94EB
:102540000012E301C095D0958091F8019091F901B6
:10255000C823D923D093F901C093F8015DC080E26C
:10256000E3EDF1E0DF011D928A95E9F785E0000FC8
:10257000111F8A95E1F7ABE8B1E047E851E09924F3
:1025800093942D91EA018991AE01B801680F711DF4
:1025900067527D4F30E02D523E4FF90197E07F01A9
:1025A000E21AF30AA92C01C0AA0CEA94EAF77B010B
:1025B000B12CE70189917E018A21892E8B18D82DB3
:1025C000D770CD2E0D2E000CDD08C82F01C0CC0F0A
:1025D000DA95EAF7D194C194D108D7E0CD22DD2471
:1025E00001C08695CA94EAF78C2BD0808D29808310
:1025F000B39488E0B812DDCF915031969F3F79F6C1
:10260000C1E0AF38BC0709F0BCCF04E610E020E21F
:1026100030E043ED51E08CCFDF91CF911F910F91CE
:10262000FF90EF90DF90CF90BF90AF909F908F90F2
:102630007F906F9008958091F601882369F062E0A1
:1026400070E08CE792E00E948A10892B19F080914B
:10265000F60108951092F6019091F60181E0892724
:102660000895CF92DF92EF92FF928091F701882335
:1026700021F160E080E00E9411110E94AE040E94EE
:1026800022128091F6018823C1F0C090D904D09025
:10269000DA04E090DB04F090DC040E944D22DC01BF
:1026A000CB018C199D09AE09BF09B7FD06C0FF908B
:1026B000EF90DF90CF900C941B13FF90EF90DF9082
:1026C000CF9008950F931F93CF93DF93C62FD42FEE
:1026D000122FFC0182818823C9F06093FC010E94C3
:1026E00041229093FB018093FA0180E28C0F8830A5
:1026F00008F057C0C77081E001C0880FCA95EAF79B
:10270000DF91CF911F910F910C94D4178091FC0110
:10271000681330C08091FA019091FB010E94592208
:10272000883C910538F500E20D0FCD17B9F080E235
:102730008C0F883040F4C77081E001C0880FCA95C3
:10274000EAF70E94DB17083028F581E09D2F97708B
:1027500001C0880F9A95EAF70E94D417812F0E9432
:10276000C1170830F0F4D77081E001C0880FDA9506
:10277000EAF70AC080E28C0F883098F4C77081E0D5
:1027800001C0880FCA95EAF7DF91CF911F910F9191
:102790000C94DB17812FDF91CF911F910F910C9437
:1027A000C117DF91CF911F910F9108959C01CB012B
:1027B000233F4CE53407F9F078F4283DFCE53F076A
:1027C000B9F0293D4CE5340711F1273D3C4531F581
:1027D00026E241EE61EE1EC0253FFCE53F0799F081
:1027E00070F0263F3C45D1F427E245EE66EE12C07C
:1027F00027E245EE0EC026E241EE60EE0BC027E276
:1028000045EE64EE07C026E241EE62EE03C028E228
:1028100041E065EE0E94621380E00895FC01828130
:10282000882319F01092FC01089581E00895109218
:10283000B9008CE08093B8000895EF92FF920F9357
:102840001F93CF93DF93182FEB011092BC0084EA03
:102850008093BC000E9441227C018091BC0087FDD6
:102860000EC0CF3F8FEFD807C1F30E9441228E19CF
:102870009F098C179D0788F38EEF9FEF2EC08091E4
:10288000B900887F883041F08091B900887F80311D
:1028900019F08FEF9FEF21C01093BB0084E8809365
:1028A000BC000E9441228C018091BC0087FD0CC0BD
:1028B000CF3F8FEFD807C1F30E944122801B910BBD
:1028C0008C179D0788F3D8CF8091B900887F883115
:1028D00011F08034F1F680E090E0DF91CF911F910C
:1028E0000F91FF90EF9008950F931F93CF93DF9375
:1028F000EB018093BB0084E88093BC000E944122DE
:102900008C018091BC0087FD0EC0CF3F8FEFD807B0
:10291000C1F30E944122801B910B8C179D0788F305
:102920008EEF9FEF0CC02091B900287F81E090E0EE
:10293000283211F480E090E0919581959109DF9122
:10294000CF911F910F910895CF92DF92EF92FF9256
:102950000F931F93CF93DF936B018A017901B90124
:102960000E941D14E6010C0D1D1DC017D10761F456
:1029700024E92093BC00DF91CF911F910F91FF902C
:10298000EF90DF90CF90089597FDF2CFB701899136
:102990000E947414EACFCF92DF92EF92FF920F93CE
:1029A0001F93CF93DF93C62F6A017901B8010E946C
:1029B0001D1497FD11C0B8018C2F0E947414E601FC
:1029C000EC0CFD1CCE15DF0539F097FD05C0B801F4
:1029D00089910E947414F6CF24E92093BC00DF9102
:1029E000CF911F910F91FF90EF90DF90CF900895BE
:1029F00084E98093BC0008959093020280930102C1
:102A00000895E0910102F0910202309721F00190C7
:102A1000F081E02D099480E00895E0910102F091A9
:102A20000202309721F00280F381E02D099408958D
:102A30002091FF01309100022817390771F090931F
:102A400000028093FF01E0910102F09102023097B1
:102A500021F00680F781E02D099408952091FD0171
:102A60003091FE012817390771F09093FE01809391
:102A7000FD01E0910102F0910202309721F0008403
:102A8000F185E02D0994089585B7806885BF85B7E5
:102A9000806885BF089508950C944B150C944C15CF
:102AA0000C944B150C944B150E9444150E94501524
:102AB0000C944E1581E008950E9438220E945F0A0E
:102AC00080E00E94C9100E942A230C945215AF92F4
:102AD000BF92CF92DF92EF92FF920F931F93CF930B
:102AE000DF93CDB7DEB72A970FB6F894DEBF0FBEDF
:102AF000CDBF0E94B30AE82E0E945A15811111C061
:102B00008FEF89838A831B820E9441228160782F04
:102B10009D838C8349815A816B818D810E94171618
:102B200054C084E0C82E82E0D82E00E010E0A02E31
:102B3000802F0E94580AB82EF60121916F01F82EBD
:102B4000F22631F40F5F1F4F0430110581F7D8CF03
:102B50008091600281FD0E945E0A80E090E02F2D4E
:102B600030E0482FB901082E02C0759567950A9488
:102B7000E2F760FF25C08E83AF8281E090E06C01B8
:102B800002C0CC0CDD1C4A95E2F72B2D30E02C2145
:102B90003D21232B09F480E088870E944122816037
:102BA000782F9A8789874E815F8168858A850E9400
:102BB0001716F801EC5FFD4F80818C25808305C0DE
:102BC00001968430910569F6BDCF0E943113E11062
:102BD0000E9400120E940115909103028917B1F022
:102BE0000E940115809303022A960FB6F894DEBF67
:102BF0000FBECDBFDF91CF911F910F91FF90EF904E
:102C0000DF90CF90BF90AF900C941F052A960FB61F
:102C1000F894DEBF0FBECDBFDF91CF911F910F9112
:102C2000FF90EF90DF90CF90BF90AF900895CF933B
:102C3000DF93CDB7DEB72B970FB6F894DEBF0FBE8C
:102C4000CDBF4F83588769877A878B87DE011196BE
:102C500086E0FD0111928A95E9F785E0FE0137963D
:102C600001900D928A95E1F749815A816B817C81AF
:102C70008D819E810E94071D2B960FB6F894DEBFB2
:102C80000FBECDBFDF91CF910895FC01808191816E
:102C90000E94D91F0895882309F413C1682F823830
:102CA000C1F40E94011581FD0CC169E380915301BB
:102CB000909154010E94AD210E9466202FEF81EE79
:102CC00094E0215080409040E1F700C0000069E3AB
:102CD00019C08338F9F40E94011580FDF2C063E544
:102CE00080915301909154010E94AD210E94662071
:102CF0002FEF81EE94E0215080409040E1F700C03A
:102D0000000063E580915301909154010E94AF212E
:102D10000C9466208438C1F40E94011582FDD1C054
:102D200067E480915301909154010E94AD210E946B
:102D300066202FEF81EE94E0215080409040E1F733
:102D400000C0000067E4DECF8CEF860F813A38F4D4
:102D500080915301909154010E94AD21D9CF80E21E
:102D6000860F883048F4677081E001C0880F6A954B
:102D7000EAF70E941B20CCCF8BE5860F833070F4DE
:102D8000653A29F0663A31F083E890E005C081E8C1
:102D900090E002C082E890E00C94181588E5860F58
:102DA000873108F08EC0683A09F445C0693A09F4E1
:102DB00045C06A3A09F445C06B3A09F445C06C3A1B
:102DC00009F445C06B3B09F445C06C3B09F445C0B0
:102DD0006D3A09F445C0603B09F445C06E3A09F408
:102DE00045C06F3A09F445C0613B09F445C0623BF8
:102DF00009F445C0633B09F445C0643B09F445C090
:102E0000653B09F445C0663B09F445C0673B09F4DE
:102E100045C0683B09F445C0693B09F445C06D3BBA
:102E200009F445C06E3B09F445C06A3B09F445C04E
:102E300080E090E044C082EE90E041C089EE90E0F6
:102E40003EC08AEE90E03BC085EB90E038C086EB58
:102E500090E035C083EB90E032C084EB90E02FC06F
:102E600087EB90E02CC08CEC90E029C08DEC90E0DA
:102E700026C083E891E023C08AE891E020C082E97F
:102E800091E01DC084E991E01AC081E292E017C090
:102E900083E292E014C084E292E011C085E292E005
:102EA0000EC086E292E00BC087E292E008C08FE697
:102EB00090E005C080E790E002C08AE292E00C94C6
:102EC0002E150895882309F45BC0682F823879F4A1
:102ED0000E94011581FF54C069E3809153019091D4
:102EE00054010E94AD210E94662069E310C083381E
:102EF000B1F40E94011580FF43C063E58091530146
:102F0000909154010E94AD210E94662063E580915A
:102F10005301909154010E94AF210C946620843893
:102F200079F40E94011582FF2BC067E48091530160
:102F3000909154010E94AD210E94662067E4E7CF82
:102F40008CEF860F813A18F380E2860F883048F4C0
:102F5000677081E001C0880F6A95EAF70E9421201E
:102F6000DCCF8BE5860F833020F480E090E00C947A
:102F70001815685A673120F480E090E00C942E1503
:102F80000895CF93C82F0E944B16C93349F42FEFF1
:102F900087EE93E0215080409040E1F700C00000B0
:102FA0008C2FCF910C946217882321F00E941B2054
:102FB0000C9466200895882321F00E9421200C940F
:102FC00066200895CF92DF92EF92FF920F931F93A6
:102FD000CF93DF937C01062FC72FFC01158112953B
:102FE0001F70D281D1110E9438200E9411208823A5
:102FF00079F0DD2369F080E2800F883048F082E0CC
:103000000E94B0200E94112091E0D82ED92601C044
:10301000D12CCC2EC2948FE0C8228C2D90E0FC01E4
:10302000EA5AFF4F0C94702B8C2F807FCF7088232F
:1030300011F0C295C07FDD2399F0CC2309F482C141
:1030400080E2800F883010F0011104C08C2F0E94A4
:103050001B2003C08C2F0E942B200E94662072C16F
:10306000802F0E946217CC2309F491C180E2800F67
:10307000883010F0011104C08C2F0E94212003C061
:103080008C2F0E9431200E94662081C18C2F807F6E
:10309000CF70803211F0C295C07F002319F001304B
:1030A000C9F022C0DD2371F0112341F0113031F459
:1030B0000E944B208C2B0E94532069C10E944B2000
:1030C0008C2B1DC0112319F0113009F460C10E942E
:1030D0005C2025C0DD2321F0163008F058C10EC059
:1030E000153008F054C11BC0DD2361F0112331F00D
:1030F000F701858180FF26C18F7085838C2F0E9408
:10310000D41745C1112359F0093309F02CC1FFEF41
:1031100027EE83E0F15020408040E1F722C18C2F60
:103120000E94DB1734C18C2F86958695837019F029
:10313000813061F02CC1DD2321F0802F9C2F937012
:1031400002C080E090E00E94181529C1DD2321F023
:10315000802F9C2F937002C080E090E00E942E157B
:103160001EC18C2F837009F045C0D11114C1402FAE
:10317000429546954770440F440F602F6F70862F1D
:1031800090E0A0E0B0E0042E04C0880F991FAA1FB1
:10319000BB1F0A94D2F704FF10C00FE010E020E03C
:1031A00030E004C0000F111F221F331F4A95D2F7D1
:1031B000009510952095309503C000E010E098012F
:1031C000C695C695C370BC01CD01602B712B822BB7
:1031D000932BC23049F058F4C13019F00E94581EA8
:1031E000DAC00E94461ED7C00E946A1ED4C00E9448
:1031F000441ED1C0DD2319F08C2F817001C086954B
:10320000882309F4C8C0402F429546954770440F63
:10321000440F602F6F70862F90E0A0E0B0E0042E86
:1032200004C0880F991FAA1FBB1F0A94D2F704FF7E
:1032300010C00FE010E020E030E004C0000F111FCC
:10324000221F331F4A95D2F700951095209530958F
:1032500003C000E010E09801C695C695C370BC019C
:10326000CD01602B712B822B932BC23049F058F487
:10327000C13019F00E941D1F8EC00E940B1F8BC011
:103280000E942F1F88C00E947E1E85C0CF70DD2344
:1032900039F08C2F0E94A41E802F0E94D4177BC06F
:1032A000802F0E94DB178C2F0E94C51E74C0023F26
:1032B00001F128F4003F41F0013FA1F03FC0033F7E
:1032C000F9F0043F39F13AC0DD2341F0153008F040
:1032D0005EC08C2F8F710E94EA1E59C0163008F014
:1032E00056C0F7CFDD2339F08C2F8F710E94A41EBA
:1032F0004EC0DD23C9F38C2F8F710E94C51E47C0BD
:10330000DD2329F08C2F8F710E948F1E40C00E94F8
:103310008A1E3DC0DD2349F0CF718C2F0E94A41E70
:1033200063E08C2F0E949B2032C081E00E94B0207D
:10333000123068F182E00E94B02029C0DD2331F014
:10334000112391F2802F0E944B1621C0112399F274
:10335000093349F49FEFE7EEF3E09150E040F0408D
:10336000E1F700C00000802F0E94621710C04C2FB0
:103370004F70602FC7010E94A3070E94B51D0FC0A8
:103380004C2F4F70602FC7010E94A60708C088EF1E
:103390008C0D843020F40E9401150E941F05DD2051
:1033A000C9F00E940D2080FD15C0F70112820E9415
:1033B00007200E94A41EC7010E94F3190E94072043
:1033C000DF91CF911F910F91FF90EF90DF90CF9001
:1033D0000C94C51EDF91CF911F910F91FF90EF903C
:1033E000DF90CF9008950F931F93CF93DF93EC015D
:1033F000988189812B813C81232B31F08F3F31F4DF
:1034000081E09F3F19F403C081E001C080E080FDAE
:1034100013C0CE010E943705882371F0688179813D
:103420008A810E94E41F8C010E94411F0E94321E6B
:10343000B801CE010E94E217DF91CF911F910F9149
:1034400008950E9438200E9448200E94662080E053
:1034500090E00E94181580E090E00C942E15809169
:103460005301909154010E94B1210C94211A0E94A1
:1034700028200C942F1AE92FE295EF704E2F50E080
:10348000FA013297EE30F105B0F4EA59FF4F0C948F
:10349000702B803F91F018F4883E68F40EC0843F92
:1034A00051F40BC0883E48F0813F29F406C093FBDD
:1034B000882780F9089580E0089581E008950E94AA
:1034C000D91F0E943B1A0895CF93DF9300D000D0FC
:1034D0001F92CDB7DEB70F900F900F900F900F9007
:1034E000DF91CF910895CF93DF9300D000D000D02B
:1034F000CDB7DEB726960FB6F894DEBF0FBECDBFB0
:10350000DF91CF9108951F93CF93DF93C09109026C
:1035100016E080910A02C81799F0D0E01C9FF001D4
:103520001D9FF00D1124E55FFD4F408151816281A7
:103530007381848195810E94731A2196C770E9CFA7
:10354000DF91CF911F91089540913B0250913C0231
:1035500060913D0270913E0280913F029091400245
:103560000C94731ACF938091400282958F7009F06A
:103570005FC080913D02882309F45AC080910902FE
:10358000B0910A0270913B02A0913C0240913E0230
:1035900050913F0291E07F3F09F090E0692FC6E033
:1035A0008B1709F445C04115510521F0AF3F21F0BB
:1035B00020E003C021E001C0262F90E020FD35C0AF
:1035C000C89FF001C99FF00D1124E55FFD4F2181D7
:1035D0002A132BC02081271328C02281211125C046
:1035E000238134812417350710F421503109241B1D
:1035F000350B283C3105C8F4209140022F70206122
:103600002093400226E0289FF001299FF00D11240D
:10361000E05FFD4F80818F70806180838BE392E05B
:103620000E94F319CF910C94831A01968770B8CF3A
:10363000CF910895AF92BF92CF92DF92EF92FF9217
:103640000F931F93CF93DF93CDB7DEB761970FB67C
:10365000F894DEBF0FBECDBF8C0185E0F801DE011E
:103660001D9601900D928A95E1F7D8014C91119623
:103670005C9111971296EC9030913B0260913C0264
:1036800080913E0290913F02009731F06F3F31F4FC
:1036900021E03F3F19F403C021E001C020E0B22F38
:1036A000B170BB2E20FD60C1F801C380D480A09012
:1036B0003D02AA2009F4EEC020914002C816D906A6
:1036C00028F0D601A81BB90BCD0104C080959095B8
:1036D0008C0D9D1DFF24F394883C910580F0F12C06
:1036E000207F09F09CC07C2DD98AC88A6E2D8989DB
:1036F0000E94641A8BE392E00E94F3192DC1822F7D
:10370000807F09F054C0561314C0431312C0FE2C1E
:10371000E1100FC02F702061209340020E94A41A74
:103720008BE392E00E94F31980914002F8018583B7
:103730005CC1CD2831F05F3F31F481E04F3F19F497
:1037400003C081E001C080E080FD03C081E08E25E0
:1037500002C080E090E0F82FF170FF2E80FF1CC0C7
:103760008091090220910A0236E0821709F41AC1F9
:1037700090E0389FF001399FF00D1124E55FFD4F77
:103780006181561306C06081461303C06281E61250
:1037900003C001968770E9CFFE2CEE2009F425C105
:1037A00080914002816080934002F12C1EC156132B
:1037B00009C0431307C0E11005C080914002F80121
:1037C0008583A4C04D875E878D859E850E945F1A84
:1037D000882379F1EE2069F120914002822F8295B1
:1037E0008F7090E0029774F080913B0290913C02C0
:1037F00098878F831986DB86CA862C87CE01079629
:103800000E94F31986E0F801ABE3B2E001900D925B
:103810008A95E1F70E94B21A0E94A41A0DC05617A9
:1038200071F04D875E878D859E850E945F1A81119C
:103830001AC0C8010E94F319FF24F394D6C04313A1
:10384000F0CFE110EECF80914002F8018583C801EE
:103850000E94F31986E0EBE3F2E0DF011D928A9506
:10386000E9F7FA2CC2C0EE2021F320914002822F0A
:1038700082958F7090E002972CF280913B0290919C
:103880003C029A8389831B82DD82CC822E83CE0107
:103890000196B6CFC816D90628F0F601E81BF90B39
:1038A000CF0104C0809590958C0D9D1D883C91059D
:1038B00048F0F12C7C2DD98AC88A6E2D89890E9406
:1038C000641A4AC0FE2CEE2009F4B3CF561333C05D
:1038D000431331C02091400220FD24C0822F8295E5
:1038E0008F70482F50E041155105E1F0D801159631
:1038F0002C9315974F30510549F08F5F982F929573
:10390000907F822F8F70892B15968C93C8010E940F
:10391000F31986E0F801ABE3B2E001900D928A95CD
:10392000E1F73DC086E0F801ABE3B2E001900D9213
:103930008A95E1F75AC04D875E878D859E850E94E6
:103940005F1A81115FCF80914002816080934002B5
:10395000C8010E94F31949C0EBE3F2E086E0DF0101
:103960001D928A95E9F71BC0EE2009F462CF4D87BE
:103970005E878D859E850E945F1AF82E882309F444
:1039800058CF86E0F801ABE3B2E001900D928A9542
:10399000E1F78BE392E00E9445160E94B21A0E9462
:1039A000A41A23C04D875E878D859E850E94D91FEE
:1039B000292F22952F70223028F49F7039F0811121
:1039C00005C00BC0243028F49F7049F4805E883015
:1039D00020F0C8010E94F319BF2CFB2C06C0D801AF
:1039E00015969C91907F91F7F8CF8F2D61960FB629
:1039F000F894DEBF0FBECDBFDF91CF911F910F9125
:103A0000FF90EF90DF90CF90BF90AF9008951F93FD
:103A1000CF93DF93CDB7DEB72C970FB6F894DEBF08
:103A20000FBECDBF4F83588769877A878B879C8766
:103A3000CE0107960E941A1B8823D1F09F818885AA
:103A40002A853B85232B31F08F3F31F481E09F3F66
:103A500019F403C081E001C080E080FD47C04F81C0
:103A6000588569857A858B859C850E94731A3EC02E
:103A700086E0FE013796DE01119601900D928A953F
:103A8000E1F7FF81E8856A857B856115710531F075
:103A9000EF3F31F481E0FF3F19F403C081E001C042
:103AA00080E080FD23C020910A0230E0C901019628
:103AB000877099274091090250E084179507F1F12A
:103AC000F983EA837D836C8396E0929FD001939F74
:103AD000B00D1124A55FBD4FFE01319601900D92EE
:103AE0009A95E1F780930A020E94831A16E080916A
:103AF000090290910A02891771F1189FC0011124DF
:103B0000855F9D4F0E941A1B882329F1E0910902CD
:103B10001E9FF0011124E55FFD4F408151816281BC
:103B20007381848195810E94731A8091090290E0CB
:103B300001968770992780930902D9CF0E94371A7E
:103B400010920A0210920902EBE3F2E086E0DF0134
:103B50001D928A95E9F72C960FB6F894DEBF0FBE3A
:103B6000CDBFDF91CF911F910895EF92FF920F93F8
:103B70001F93CF93DF938C01892B09F46CC0F12C38
:103B8000EE24E394E8012196F8018491843740F40F
:103B9000843008F051C0813081F0823019F15BC06F
:103BA000853709F444C0A8F19CE7980F903708F0D6
:103BB00052C08F770E94621741C00E5F1F4FFE01F7
:103BC000849190E2980F983050F48770FE2D01C0D8
:103BD000FF0F8A95EAF78F2F0E943B2014C00E94A6
:103BE0004B162DC00E5F1F4FFE01849190E2980F7F
:103BF000983060F48770FE2D01C0FF0F8A95EAF7B8
:103C00008F2F0E9441200E94662019C00E946217D7
:103C100016C00E5F1F4FFE01C491CC2381F08FE9C7
:103C20009FE00197F1F700C00000C150F6CF0E5F92
:103C30001F4FFE01F49003C00E944B168E018F2D82
:103C4000882309F49FCFEFE9FFE03197F1F700C037
:103C500000008150F5CFDF91CF911F910F91FF9020
:103C6000EF900895089508950C94331E0C94341E1B
:103C70000E94361E60934F0270935002809351024F
:103C8000909352020C94211A0C94381E0F931F9398
:103C900000914F0210915002209151023091520236
:103CA000602B712B822B932B1F910F910C94381E3C
:103CB0000F931F9300914F021091500220915102D7
:103CC0003091520260237123822393231F910F911D
:103CD0000C94381E0F931F9300914F0210915002C5
:103CE0002091510230915202602771278227932739
:103CF0001F910F910C94381E0C94331E0E947C1E51
:103D000060934B0270934C0280934D0290934E024D
:103D10000C94211A60E070E0CB010C947E1E0F938E
:103D20001F9341E050E060E070E08A019B0104C015
:103D3000000F111F221F331F8A95D2F7C901B80146
:103D40001F910F910C947E1E0F931F9341E050E042
:103D500060E070E004C0440F551F661F771F8A950E
:103D6000D2F780914B0290914C02A0914D02B091FC
:103D70004E028A019B01082B192B2A2B3B2BC901D0
:103D8000B8011F910F910C947E1E0F931F9341E079
:103D900050E060E070E004C0440F551F661F771FBD
:103DA0008A95D2F7409550956095709580914B0219
:103DB00090914C02A0914D02B0914E028A019B015C
:103DC000082319232A233B23C901B8011F910F910E
:103DD0000C947E1E0F931F9341E050E060E070E072
:103DE00004C0440F551F661F771F8A95D2F7809134
:103DF0004B0290914C02A0914D02B0914E028A016B
:103E00009B01082719272A273B27C901B8011F91C1
:103E10000F910C947E1E0F931F9300914B021091F3
:103E20004C0220914D0230914E02602B712B822B5F
:103E3000932B1F910F910C947E1E0F931F93009153
:103E40004B0210914C0220914D0230914E026023A2
:103E50007123822393231F910F910C947E1E0F9345
:103E60001F9300914B0210914C0220914D02309112
:103E70004E0260277127822793271F910F910C9480
:103E80007E1E0895990F990F890FE82FE695E69504
:103E9000E695877051E001C0550F8A95EAF785E0F5
:103EA000E89FF0011124EF5BFD4F20E030E070E06F
:103EB0004081CB01022E02C0969587950A94E2F7C5
:103EC0008170819584278523842781932F5F3F4FBD
:103ED0002530310569F70895990F990F890F682FDB
:103EE000669566956695982F977085E0689FB001F6
:103EF000112440E050E080E0FB01E40FF51FEF5B90
:103F0000FD4F208130E0092E02C0369527950A9496
:103F1000E2F721703327042E01C0220F0A94EAF73A
:103F2000822B4F5F5F4F4530510531F70895BF92A7
:103F3000CF92DF92EF92FF920F931F93CF93DF9375
:103F40008C01C0904B02D0904C02E0904D02F0905A
:103F50004E0280914F0290915002A0915102B09177
:103F60005202C82AD92AEA2AFB2ACFE1D0E0D70197
:103F7000C6010C2E04C0B695A795979587950A940F
:103F8000D2F780FD04C0219790F7B12C07C0BC2E5A
:103F9000B8018C2F0E94C3070197A9F38B2DDF91E5
:103FA000CF911F910F91FF90EF90DF90CF90BF9036
:103FB0000895CF93DF93EC010E94971FBE010E94EA
:103FC000C307DF91CF9108951F93CF93DF93EB0148
:103FD00090910802992321F0CB010E94D91F13C0B0
:103FE000882349F0CB010E94971F182F682FCE011C
:103FF0000E94421F04C0CB010E946C1F182FBE01FB
:10400000812F0E94C307DF91CF911F910895809166
:104010005302859585958595089580915302877003
:10402000089590915302977081E009F480E008951B
:1040300080915F02089590915F02892B80935F02C7
:104040000895809590915F02892380935F0208957F
:1040500010925F02089590915E02892B80935E0218
:104060000895809590915E02892380935E02089561
:1040700010925E02089590915D02892B80935D02FB
:104080000895809590915D02892380935D02089543
:1040900010925D02089580915402089508950C9441
:1040A0004E200C944F2090915402981721F0809349
:1040B00054020C945120089580915402882329F0D1
:1040C0001092540280E00C9451200895E091530125
:1040D000F091540180915F028083E0915301F0914F
:1040E0005401908180915E02892B8083E09153017D
:1040F000F0915401908180915D02892B80838091A1
:104100005402882381F0E0915301F0915401908191
:10411000892B808380915301909154010E947A21D0
:1041200081110E945C2080915301909154010C9464
:104130000D150C944E2098E0899F90011124262B98
:10414000209353020E94A41E809153028595859569
:1041500085950C9499201092530280E00C9499203C
:10416000209153028095822380935302982F977059
:1041700079F430E0482F082E000C550B2417350732
:1041800039F08595859585950E94C51E0C94AB20C8
:10419000089580E090E00E94AD2B21E08C3E9E4F80
:1041A00009F020E0822F089582E090E00C94A52B86
:1041B000682F82E090E00C94C32B83E090E00C9495
:1041C000A52B682F83E090E00C94C32BCF9384E061
:1041D00090E00E94A52BC82F81E290E00E94A52BC1
:1041E0002C2F30E0A901582BCA01CF910895CF930D
:1041F000C92F682F84E090E00E94C32B6C2F81E2CE
:1042000090E0CF910C94C32BAB01BC018FE090E008
:104210000C94D52BAB01BC0183E190E00C94D52B21
:1042200060E070E0CB010C940A2160E070E0CB010B
:104230000E9404210C9410216CEE7EEF80E090E04F
:104240000E94E12B60E082E090E00E94C32B60E0DE
:1042500083E090E00E94C32B10924F021092500214
:10426000109251021092520260E084E090E00E94AD
:10427000C32B60E081E290E00E94C32B60E085E008
:1042800090E00E94C32B60E086E090E00E94C32B88
:104290006FEF87E090E00E94C32B40E050E0BA014E
:1042A00088E090E00E94D52B60E08DE090E00E94D5
:1042B000C32B40E050E0BA0188E190E00E94D52B8A
:1042C00060E087E190E00E94C32B40E050E0BA013B
:1042D0008CE190E00E94D52B60E080E290E00E94AB
:1042E000C32B0C9415210C941C21682F8EE090E0B8
:1042F0000C94C32BFC01329697E080E0915029F09A
:1043000021912223D9F38F5FF9CF08959C01FC01FD
:1043100032969FEF80E04191461789F09F3F19F454
:10432000411101C0982F8F5F8630A9F79F3F39F068
:10433000F901E90FF11D97FDFA956283089508953B
:104340009C012A5F3F4FFC014281461301C012824B
:10435000019682179307B9F708950C9486210C945F
:10436000A021029626E0FC0111922A95E9F7089512
:1043700008950C94B8210C94B821CF930E94BB21CE
:104380000E94B30A0E94B921C0E08C2F0E94580AF3
:10439000811104C0CF5FC430C1F701C081E0CF916B
:1043A00008950C94B8210C94D1210E94D3218091BE
:1043B000E904843049F11092610220E488E190E040
:1043C0000FB6F894A895809360000FBE209360000C
:1043D00080E00E941F050E94D32183B7817F846003
:1043E00083BF83B7816083BF7894889583B78E7FBE
:1043F00083BF0FB6F894A895809160008861809380
:104400006000109260000FBE08950C94B8210E94C5
:10441000371A0E9401150E941F050C9405221F9255
:104420000F920FB60F9211248F939F93AF93BF9368
:1044300080916102811113C08091DF049091E004AA
:10444000A091E104B091E2044196A11DB11D8093B9
:10445000DF049093E004A093E104B093E204BF91E1
:10446000AF919F918F910F900FBE0F901F90189555
:1044700082E084BD93E095BD9AEF97BD80936E0076
:1044800008952FB7F8948091DF049091E004A091F3
:10449000E104B091E2042FBF08952FB7F894609122
:1044A000DF047091E0048091E1049091E2042FBF59
:1044B0000895CF92DF92EF92FF920F931F932FB741
:1044C000F8944091DF045091E0046091E104709110
:1044D000E2042FBF6A017B01EE24FF248C0120E05F
:1044E00030E0C016D106E206F30610F4415051093F
:1044F0009A01281B390BC9011F910F91FF90EF9072
:10450000DF90CF900895CF92DF92EF92FF920F93BA
:104510001F932FB7F894C090DF04D090E004E09090
:10452000E104F090E2042FBF97018601061B170BF0
:10453000280B390BC616D706E806F90618F0C9018C
:10454000B80106C0C901B80161507109810991091A
:104550001F910F91FF90EF90DF90CF900895789486
:104560001F920F920FB60F9211248F939F93AF93C8
:10457000BF938091DF049091E004A091E104B09199
:10458000E2040196A11DB11D8093DF049093E00425
:10459000A093E104B093E204BF91AF919F918F91FA
:1045A0000F900FBE0F901F90189587E797E7909395
:1045B0000108809300089AE088E10FB6F894A89566
:1045C000809360000FBE90936000FFCFCF92DF9288
:1045D000EF92FF920F931F93CF93C0E0E82EF12C40
:1045E0008C2F0E94580A00E010E0C82ED12CC60182
:1045F000002E02C0959587950A94E2F780FD06C0CB
:104600000F5F1F4F0430110591F70AC0602F7C2FF8
:1046100080E00E94A707E816F90691F781E004C040
:10462000CF5FC430E9F680E0CF911F910F91FF90EA
:10463000EF90DF90CF900895CF93C82F8CE20E9427
:10464000E622882321F08C2FCF910C94E62280E083
:10465000CF910895CF930E94C920811102C00E947A
:104660007321C5E6C15049F00E94B30A8FE39CE96B
:104670000197F1F700C00000F5CF89E20E941C23EA
:10468000811120C18AE20E941C2381110E947321A2
:1046900085E00E941C2381110E94D5220E94D42013
:1046A0008093600287E00E941C238823A9F18BE19C
:1046B0000E941C23882351F08091600281FB2227F5
:1046C00020F991E0922790FB81F90EC08EE00E94C4
:1046D0001C23882361F08091600282FB222720F94D
:1046E00091E0922790FB82F98093600215C080E1EF
:1046F0000E941C2390916002882341F093FB2227A3
:1047000020F981E0822780FB93F904C0892F8095EE
:1047100080FB90F990936002809160020E94D82003
:104720000E94E6209093E4048093E30480EE0E94CC
:104730001C23882341F08091E304982F909590FBEF
:1047400080F98093E30489E30E941C23882359F0B5
:104750008091E30481FB222720F991E0922790FBCE
:1047600081F98093E30482EE0E941C23882359F090
:104770008091E30482FB222720F991E0922790FBAD
:1047800082F98093E30486EE0E941C23882359F06B
:104790008091E30483FB222720F991E0922790FB8C
:1047A00083F98093E30483EE0E941C23882359F04D
:1047B0008091E30484FB222720F991E0922790FB6B
:1047C00084F98093E30485E30E941C23882359F035
:1047D0008091E30485FB222720F991E0922790FB4A
:1047E00085F98093E30481E30E941C23882359F018
:1047F0008091E30486FB222720F991E0922790FB29
:1048000086F98093E30481E10E941C23882359F0F8
:104810008091E30487FB222720F991E0922790FB07
:1048200087F98093E3048091E3049091E4040E946B
:10483000F72087E20E941C23C82F8EE10E941C23D0
:104840008111C2608FE10E941C238111C46080E24B
:104850000E941C238111C86081E20E941C238111E7
:10486000C06182E20E941C238111C06283E20E9427
:104870001C238111C06484E20E941C23882311F050
:10488000C06802C0CC2329F08C2F0E94E1206C2F3D
:1048900003C00E94DD20682F70E080E090E00E945D
:1048A000441E8FE00E941C23882319F081E00E949F
:1048B000752185E10E941C23882321F080E0CF919F
:1048C0000C947521CF91089580916A0208950895FE
:1048D0000F931F93CF93DF9300D01F92CDB7DEB716
:1048E0008C010E949526823011F0843021F584E0FD
:1048F00089831B830A8382E08093E9008FEF909184
:10490000E800815095FD06C095ED9A95F1F70000FD
:104910008111F5CF8091E80085FF0DC040E050E0A7
:1049200063E070E0CE0101960E94B2268091E8001B
:104930008E778093E8000F900F900F90DF91CF91CA
:104940001F910F910895CF93DF9300D01F92CDB7A1
:10495000DEB72091E904243031F523E02983805823
:1049600091099B838A8382E08093E9008FEF909185
:10497000E800815095FD06C095ED9A95F1F700008D
:104980008111F5CF8091E80085FF0DC040E050E037
:1049900063E070E0CE0101960E94B2268091E800AB
:1049A0008E778093E8000F900F900F90DF91CF915A
:1049B0000895CF93DF93EC010E949526823011F089
:1049C000843039F581E08093E9008FEF9091E80021
:1049D000815095FD06C095ED9A95F1F70000811183
:1049E000F5CF8091E80085FF14C040E050E068E01A
:1049F00070E0CE010E94B2268091E8008E7780930D
:104A0000E80088E0FE01A2E6B2E001900D928A95EE
:104A1000E1F7DF91CF9108958091E804811109C0F9
:104A20000E9443280E94A0288091E2008460809325
:104A3000E20008951092E8040895089508950C94F2
:104A4000072242E061EC81E00E94BC2742E261EC77
:104A500082E00C94BC278091EB04833009F460C0A1
:104A600030F4813071F0823009F499C008958A30B1
:104A700009F485C08B3009F46BC0893009F0A7C0F8
:104A800020C08091EA04813A09F0A1C08091E80039
:104A9000877F8093E8008091EE049091EF04892B4A
:104AA00021F468E082E692E003C060E080E090E0FC
:104AB00070E00E94FD268091E8008B778093E800EB
:104AC00008958091EA04813209F081C08091EE045A
:104AD0009091EF04029708F07AC08091E800877FF8
:104AE0008093E8008091E80082FD05C08091E90490
:104AF0008111F8CF6CC02091F3008091F20090E01A
:104B0000922B029729F48091F1008B7F813021F460
:104B10008091F10080936A028091E8008B7753C006
:104B20008091EA04813A09F052C08091EE0490919C
:104B3000EF04892B09F04BC08091E800877F8093B8
:104B4000E8008091E80080FFFCCF80915F0136C0D3
:104B50008091EA048132D9F58091EE049091EF04BE
:104B6000892BA9F58091E800877F8093E8000E9457
:104B7000F1278091EC0480935F010C94371A8091A7
:104B8000EA04813221F58091E800877F8093E80074
:104B90000E94F1278091ED0480936B02089580912B
:104BA000EA04813AA1F48091E800877F8093E800CD
:104BB0008091E80080FFFCCF80916B028093F10030
:104BC0008091E8008E778093E8000C94F127089597
:104BD00084B7877F84BF0FB6F894A8958091600052
:104BE000886180936000109260000FBE80E880931F
:104BF0006100109261000E9454150E9443280E9497
:104C0000A0288091E20084608093E20078940E9462
:104C1000352B0E945C1585E591E00E94FC14809183
:104C2000E904853069F40E94D5218091E704882346
:104C3000B1F30E94BD21882391F30E949C26EFCFFF
:104C40000E946715ECCF0C942526292F332723309B
:104C50003105C9F060F42130310581F02230310591
:104C600009F04AC08BE390E026E038E049C02132E9
:104C7000310511F12232310579F13EC082E190E037
:104C800021E438E03DC099278130910561F040F082
:104C90008230910559F0039779F5E0EEF7E008C00E
:104CA000E2E0F8E005C0E8EFF7E002C0E6EEF7E08A
:104CB000849190E09F0124C06115710541F061303D
:104CC0007105D1F489E090E021E338E019C089E072
:104CD00090E028E138E014C06115710541F06130C1
:104CE000710551F486E390E023E538E009C080E4E3
:104CF00090E029E838E004C080E090E020E030E077
:104D0000FA013183208308950895CF93C82F0E941C
:104D10008426C0936C02CF9108958091E904843079
:104D200011F081E0089582E0089580916C02811174
:104D300002C00C948D26089580E189BD82E189BD71
:104D400009B400FEFDCF8091D8008F7D8093D800FC
:104D50008091E00082608093E0008091E00081FD1E
:104D6000FCCF0895CF92DF92EF92FF920F931F93A3
:104D7000CF93DF93EC018B017A010E9410288111FF
:104D800033C0E114F10439F0F70180819181081BEF
:104D9000190BC80FD91FC12CD12C0115110519F100
:104DA0008091E80085FD16C08091E8008E778093A1
:104DB000E800E114F10449F0F70180819181C80E07
:104DC000D91ED182C08285E00FC00E94102888239E
:104DD00021F30AC089918093F10001501109FFEF7E
:104DE000CF1ADF0ADACF80E0DF91CF911F910F91C8
:104DF000FF90EF90DF90CF9008952091F0043091D4
:104E0000F1042617370748F06115710539F4209130
:104E1000E8002E772093E80001C0B901FC0120E0F2
:104E20006115710579F18091E9048823F1F18530EC
:104E3000F1F18091E80083FD3CC08091E80082FDA3
:104E40002EC08091E80080FFEBCF2091F30080918D
:104E5000F20090E0922B6115710551F088309105B8
:104E600038F421912093F100615071090196F3CF3C
:104E700021E0089709F020E08091E8008E77809388
:104E8000E800CECF2111CFCF0AC08091E90488235A
:104E900061F0853061F08091E80083FD0AC0809167
:104EA000E80082FFF2CF80E0089582E0089583E079
:104EB000089581E008952091F0043091F1042617BF
:104EC000370748F06115710539F42091E8002E7715
:104ED0002093E80001C0B901FC0120E061157105D3
:104EE00091F18091E904882309F440C0853009F4E8
:104EF0003FC08091E80083FD3DC08091E80082FDC5
:104F00002FC08091E80080FFE9CF2091F3008091CD
:104F1000F20090E0922B6115710559F088309105EF
:104F200040F424912093F10031966150710901966B
:104F3000F2CF21E0089709F020E08091E8008E7719
:104F40008093E800CBCF2111CCCF0AC08091E90437
:104F5000882361F0853061F08091E80083FD0AC00C
:104F60008091E80082FFF2CF80E0089582E008950A
:104F700083E0089581E00895982F973068F5909325
:104F8000E900981739F07091EC002091ED005091F4
:104F9000F00003C0242F762F50E021FD02C09F5F58
:104FA000ECCF3091EB003E7F3093EB003091ED0081
:104FB0003D7F3093ED003091EB0031603093EB009A
:104FC0007093EC002093ED005093F0002091EE00E0
:104FD00027FDE5CF80E008958F708093E90081E0A0
:104FE00008958091EA0487FF11C08091E80082FD56
:104FF00005C08091E9048111F8CF11C08091E800CB
:105000008B770BC08091E904882349F08091E800F8
:1050100080FFF8CF8091E8008E778093E8000895B4
:105020002091E4003091E50095E64091EC00842F5A
:10503000817040FF23C08091E80080FD1DC08091F9
:10504000E904882399F0853099F08091EB0085FD83
:1050500011C04091E4005091E5002417350729F371
:10506000915011F09A01E1CF84E0089582E0089513
:1050700083E0089581E0089580E008954091E8007C
:1050800042FFDDCF08950E94B1280E94B928E0EECA
:10509000F0E0808181608083E8EDF0E080818F77AF
:1050A000808319BCA7EDB0E08C918E7F8C938081BA
:1050B0008F7E80831092E80408950F931F93CF93FF
:1050C000DF930E94B1280E94B928C8EDD0E0888102
:1050D0008F77888388818068888388818F7D8883A3
:1050E00019BC1092E9041092E5041092E7041092A2
:1050F000E60400EE10E0F80180818B7F80838881D8
:105100008160888342E060E080E00E94BC27E1EE9D
:10511000F0E080818E7F8083E2EEF0E0808181602C
:105120008083808188608083F80180818E7F808386
:10513000888180618883DF91CF911F910F910895BD
:10514000E8EDF0E080818F7E8083E7EDF0E0808104
:105150008160808384E082BF81E08093E8040C94C6
:105160005D28E8EDF0E080818E7F80831092E20080
:1051700008951092DA001092E10008951F920F92A4
:105180000FB60F9211242F933F934F935F936F931A
:105190007F938F939F93AF93BF93EF93FF938091F0
:1051A000E10082FF0BC08091E20082FF07C0809186
:1051B000E1008B7F8093E1000E94342B8091DA0024
:1051C00080FF1FC08091D80080FF1BC08091DA0053
:1051D0008E7F8093DA008091D90080FF0DC080E13E
:1051E00089BD82E189BD09B400FEFDCF81E08093D5
:1051F000E9040E940C2505C019BC1092E9040E9424
:105200001A258091E10080FF19C08091E20080FFA3
:1052100015C08091E2008E7F8093E2008091E200D1
:1052200080618093E2008091D80080628093D800F2
:1052300019BC85E08093E9040E941E258091E1005D
:1052400084FF30C08091E20084FF2CC080E189BDE2
:1052500082E189BD09B400FEFDCF8091D8008F7D29
:105260008093D8008091E1008F7E8093E10080914F
:10527000E2008F7E8093E2008091E2008160809363
:10528000E2008091E504882311F084E007C080915A
:10529000E30087FD02C081E001C083E08093E90460
:1052A0000E941F258091E10083FF29C08091E200C8
:1052B00083FF25C08091E100877F8093E10082E039
:1052C0008093E9041092E5048091E1008E7F809341
:1052D000E1008091E2008E7F8093E2008091E20005
:1052E00080618093E20042E060E080E00E94BC27A1
:1052F0008091F00088608093F0000E941D25FF914E
:10530000EF91BF91AF919F918F917F916F915F913D
:105310004F913F912F910F900FBE0F901F901895B6
:105320001F920F920FB60F9211242F933F934F931A
:105330005F936F937F938F939F93AF93BF93CF931D
:10534000DF93EF93FF93C091E900CF708091EC0061
:10535000D82FD17080FDD0E81092E9008091F00044
:10536000877F8093F00078940E94D4291092E900FE
:105370008091F00088608093F000CD2BCF70C093B7
:10538000E900FF91EF91DF91CF91BF91AF919F9194
:105390008F917F916F915F914F913F912F910F90DE
:1053A0000FBE0F901F9018951F93CF93DF93CDB72B
:1053B000DEB7AA970FB6F894DEBF0FBECDBFEAEEF8
:1053C000F4E08091F100819324E0E23FF207C9F715
:1053D0000E942B258091E80083FF2EC18091EA0472
:1053E0009091EB04492F50E04A30510508F024C158
:1053F000FA01EC58FF4F0C94702B803821F0823862
:1054000009F01AC108C08091E6049091E70499233D
:1054100089F082600FC08091EE048F70873008F0B1
:105420000BC18093E9008091EB0085FB882780F910
:105430001092E9009091E800977F9093E8008093A4
:10544000F1001092F100D1C0282F2D7F09F0F4C097
:10545000882319F0823061F0EFC08091EC04813034
:1054600009F0EAC0933009F080E08093E7042EC091
:105470008091EC0481112AC08091EE048F702FEF8F
:10548000280F263008F0D8C08093E9002091EB0067
:1054900020FF1CC0933021F48091EB00806214C087
:1054A0009091EB0090619093EB0021E030E0A90136
:1054B00002C0440F551F8A95E2F74093EA0010920C
:1054C000EA008091EB0088608093EB001092E90085
:1054D0008091E800877F8093E8000E94F127ACC0AC
:1054E0008111AAC01091EC041F778091E3008078AD
:1054F000812B8093E3008091E800877F8093E80010
:105500000E94F1278091E80080FFFCCF8091E300AA
:1055100080688093E300111102C082E001C083E043
:105520008093E90489C08058823008F085C080915A
:10553000EC049091ED048C3D53E0950779F583E000
:105540008A838AE289834FB7F894DE01139620E0BC
:105550003EE051E2E32FF0E050935700E49120FF4A
:1055600003C0E295EF703F5FEF708E2F90E0EA305E
:1055700010F0C79601C0C0968D939D932F5F243184
:1055800049F74FBF8091E800877F8093E8006AE287
:1055900070E0CE0101960E94FD2616C06091EE04D7
:1055A0007091EF04AE014F5F5F4F0E942326BC0154
:1055B000892B09F441C09091E800977F9093E8000F
:1055C00089819A810E945B278091E8008B77809384
:1055D000E80032C0803881F58091E800877F8093B1
:1055E000E8008091E5048093F1008091E8008E77D7
:1055F00072CF811121C08091EC049091ED04992724
:105600000297D4F48091E800877F8093E80080912E
:10561000EC048093E5040E94F1278091E504811158
:1056200006C08091E30087FD02C081E001C084E0F4
:105630008093E9040E9421258091E80083FF0AC03D
:105640008091E800877F8093E8008091EB00806282
:105650008093EB00AA960FB6F894DEBF0FBECDBFC5
:10566000DF91CF911F9108950895CF938091E90420
:105670008823A1F0C091E900CF709091EC00892FB0
:10568000817090FD80E8C82B1092E9008091E800BD
:1056900083FD0E94D429CF70C093E900CF91089573
:1056A000991B79E004C0991F961708F0961B881F74
:1056B0007A95C9F780950895AA1BBB1B51E107C0D5
:1056C000AA1FBB1FA617B70710F0A61BB70B881F92
:1056D000991F5A95A9F780959095BC01CD01089521
:1056E000EE0FFF1F0590F491E02D0994FB01DC0102
:1056F00002C005900D9241505040D8F70895FB012B
:10570000DC0104C08D910190801921F4415050407A
:10571000C8F7881B990B0895FB01DC0102C00190BA
:105720000D9241505040D8F70895DC01CB01FC01A7
:10573000F999FECF06C0F2BDE1BDF89A319600B4EA
:105740000D9241505040B8F70895F999FECF92BD9F
:1057500081BDF89A992780B50895A8E1B0E042E0AC
:1057600050E00C94972BDC01A40FB51F4150504022
:1057700048F0CB01840F951F2E910E94C42B4150FD
:105780005040D0F70895262FF999FECF92BD81BDE4
:10579000F89A019700B4021639F01FBA20BD0FB66F
:1057A000F894FA9AF99A0FBE08950396272F0E944B
:1057B000C42B0E94C32B252F0E94C42B242F0C9492
:1057C000C42B0196272F0E94C42B0C94C32BF89452
:0257D000FFCF09
:1057D2000102030405060708090A0B0C0D0E0F103F
:1057E2004A152515181512154A0A250A180A120A09
:1057F2004A072507180712074A0525051805120545
:10580200000000000101010101010101010101018A
:105812000102020100000300FF00FFFF0021007FE0
:1058220022000355026424D9246724A32468240196
:1058320000FFFF946697C6F4F5F6F74F0F560F6216
:105842000F500F00FF0100010000FFFF00000100E8
:1058520001FF003236343500081018181008000015
:00000001FF
